{
  "abi": [
    {
      "anonymous": false,
      "inputs": [
        {
          "indexed": true,
          "internalType": "bytes32",
          "name": "hash",
          "type": "bytes32"
        }
      ],
      "name": "OrderCancelled",
      "type": "event"
    },
    {
      "anonymous": false,
      "inputs": [
        {
          "indexed": true,
          "internalType": "bytes32",
          "name": "hash",
          "type": "bytes32"
        }
      ],
      "name": "OrderCreated",
      "type": "event"
    },
    {
      "inputs": [
        {
          "internalType": "bytes32",
          "name": "hash",
          "type": "bytes32"
        },
        {
          "internalType": "uint8",
          "name": "v",
          "type": "uint8"
        },
        {
          "internalType": "bytes32",
          "name": "r",
          "type": "bytes32"
        },
        {
          "internalType": "bytes32",
          "name": "s",
          "type": "bytes32"
        }
      ],
      "name": "cancelOrder",
      "outputs": [],
      "stateMutability": "nonpayable",
      "type": "function"
    },
    {
      "inputs": [
        {
          "internalType": "bytes32",
          "name": "hash",
          "type": "bytes32"
        }
      ],
      "name": "cancelOrderCallHash",
      "outputs": [
        {
          "internalType": "bytes32",
          "name": "",
          "type": "bytes32"
        }
      ],
      "stateMutability": "view",
      "type": "function"
    },
    {
      "inputs": [
        {
          "internalType": "address",
          "name": "maker",
          "type": "address"
        },
        {
          "internalType": "address",
          "name": "fromToken",
          "type": "address"
        },
        {
          "internalType": "address",
          "name": "toToken",
          "type": "address"
        },
        {
          "internalType": "uint256",
          "name": "amountIn",
          "type": "uint256"
        },
        {
          "internalType": "uint256",
          "name": "amountOutMin",
          "type": "uint256"
        },
        {
          "internalType": "address",
          "name": "recipient",
          "type": "address"
        },
        {
          "internalType": "uint256",
          "name": "deadline",
          "type": "uint256"
        },
        {
          "internalType": "uint8",
          "name": "v",
          "type": "uint8"
        },
        {
          "internalType": "bytes32",
          "name": "r",
          "type": "bytes32"
        },
        {
          "internalType": "bytes32",
          "name": "s",
          "type": "bytes32"
        }
      ],
      "name": "createOrder",
      "outputs": [],
      "stateMutability": "nonpayable",
      "type": "function"
    },
    {
      "inputs": [
        {
          "internalType": "address",
          "name": "maker",
          "type": "address"
        },
        {
          "internalType": "address",
          "name": "fromToken",
          "type": "address"
        },
        {
          "internalType": "address",
          "name": "toToken",
          "type": "address"
        },
        {
          "internalType": "uint256",
          "name": "amountIn",
          "type": "uint256"
        },
        {
          "internalType": "uint256",
          "name": "amountOutMin",
          "type": "uint256"
        },
        {
          "internalType": "address",
          "name": "recipient",
          "type": "address"
        },
        {
          "internalType": "uint256",
          "name": "deadline",
          "type": "uint256"
        }
      ],
      "name": "createOrderCallHash",
      "outputs": [
        {
          "internalType": "bytes32",
          "name": "",
          "type": "bytes32"
        }
      ],
      "stateMutability": "view",
      "type": "function"
    },
    {
      "inputs": [
        {
          "internalType": "address",
          "name": "fromToken",
          "type": "address"
        },
        {
          "internalType": "uint256",
          "name": "page",
          "type": "uint256"
        },
        {
          "internalType": "uint256",
          "name": "limit",
          "type": "uint256"
        }
      ],
      "name": "hashesOfFromToken",
      "outputs": [
        {
          "internalType": "bytes32[]",
          "name": "",
          "type": "bytes32[]"
        }
      ],
      "stateMutability": "view",
      "type": "function"
    },
    {
      "inputs": [
        {
          "internalType": "address",
          "name": "maker",
          "type": "address"
        },
        {
          "internalType": "uint256",
          "name": "page",
          "type": "uint256"
        },
        {
          "internalType": "uint256",
          "name": "limit",
          "type": "uint256"
        }
      ],
      "name": "hashesOfMaker",
      "outputs": [
        {
          "internalType": "bytes32[]",
          "name": "",
          "type": "bytes32[]"
        }
      ],
      "stateMutability": "view",
      "type": "function"
    },
    {
      "inputs": [
        {
          "internalType": "address",
          "name": "toToken",
          "type": "address"
        },
        {
          "internalType": "uint256",
          "name": "page",
          "type": "uint256"
        },
        {
          "internalType": "uint256",
          "name": "limit",
          "type": "uint256"
        }
      ],
      "name": "hashesOfToToken",
      "outputs": [
        {
          "internalType": "bytes32[]",
          "name": "",
          "type": "bytes32[]"
        }
      ],
      "stateMutability": "view",
      "type": "function"
    },
    {
      "inputs": [
        {
          "internalType": "bytes32",
          "name": "",
          "type": "bytes32"
        }
      ],
      "name": "orders",
      "outputs": [
        {
          "internalType": "address",
          "name": "maker",
          "type": "address"
        },
        {
          "internalType": "address",
          "name": "fromToken",
          "type": "address"
        },
        {
          "internalType": "address",
          "name": "toToken",
          "type": "address"
        },
        {
          "internalType": "uint256",
          "name": "amountIn",
          "type": "uint256"
        },
        {
          "internalType": "uint256",
          "name": "amountOutMin",
          "type": "uint256"
        },
        {
          "internalType": "address",
          "name": "recipient",
          "type": "address"
        },
        {
          "internalType": "uint256",
          "name": "deadline",
          "type": "uint256"
        },
        {
          "internalType": "uint8",
          "name": "v",
          "type": "uint8"
        },
        {
          "internalType": "bytes32",
          "name": "r",
          "type": "bytes32"
        },
        {
          "internalType": "bytes32",
          "name": "s",
          "type": "bytes32"
        }
      ],
      "stateMutability": "view",
      "type": "function"
    }
  ],
  "address": "0xd851e9c98bec76a4945e2bb79183ab9a309c6b92",
  "args": [],
  "solcInputHash": "0xc93a601e1d555e97dd3b3331ff9f936a28a9a42ac07ca572c0dbd905cf26e13f",
  "bytecode": "0x608060405234801561001057600080fd5b50610ee0806100206000396000f3fe608060405234801561001057600080fd5b50600436106100885760003560e01c806389da5e691161005b57806389da5e69146101d75780639c3f1e90146101f4578063ac3204aa1461028d578063ed421aa6146102c157610088565b806314eaa8681461008d578063257ce8911461010f5780635fd45d241461017357806365f7a551146101a5575b600080fd5b6100bf600480360360608110156100a357600080fd5b506001600160a01b03813516906020810135906040013561032b565b60408051602080825283518183015283519192839290830191858101910280838360005b838110156100fb5781810151838201526020016100e3565b505050509050019250505060405180910390f35b610161600480360360e081101561012557600080fd5b506001600160a01b0381358116916020810135821691604082013581169160608101359160808201359160a08101359091169060c00135610359565b60408051918252519081900360200190f35b6100bf6004803603606081101561018957600080fd5b506001600160a01b038135169060208101359060400135610376565b6100bf600480360360608110156101bb57600080fd5b506001600160a01b03813516906020810135906040013561039c565b610161600480360360208110156101ed57600080fd5b50356103c2565b6102116004803603602081101561020a57600080fd5b5035610408565b604051808b6001600160a01b031681526020018a6001600160a01b03168152602001896001600160a01b03168152602001888152602001878152602001866001600160a01b031681526020018581526020018460ff1681526020018381526020018281526020019a505050505050505050505060405180910390f35b6102bf600480360360808110156102a357600080fd5b5080359060ff6020820135169060408101359060600135610470565b005b6102bf60048036036101408110156102d857600080fd5b506001600160a01b0381358116916020810135821691604082013581169160608101359160808201359160a08101359091169060c08101359060ff60e082013516906101008101359061012001356105df565b6001600160a01b0383166000908152600160205260409020606090610351908484610b60565b949350505050565b600061036a88888888888888610c22565b98975050505050505050565b6001600160a01b0383166000908152602081905260409020606090610351908484610b60565b6001600160a01b0383166000908152600260205260409020606090610351908484610b60565b60408051466020808301919091523060601b82840152635619025560e11b6054830152605880830194909452825180830390940184526078909101909152815191012090565b600360208190526000918252604090912080546001820154600283015493830154600484015460058501546006860154600787015460088801546009909801546001600160a01b039788169996881698968816979596949590931693919260ff90911691908a565b600084815260036020526040902080546001600160a01b03166104cc576040805162461bcd60e51b815260206004820152600f60248201526e6e6f2d6f726465722d65786973747360881b604482015290519081900360640190fd5b60006104d7866103c2565b82549091506104f2906001600160a01b031682878787610cb8565b610539576040805162461bcd60e51b81526020600482015260136024820152723737ba16b9b4b3b732b216b13c96b6b0b5b2b960691b604482015290519081900360640190fd5b81546001600160a01b0316600090815260208190526040902061055c9087610e1b565b6001828101546001600160a01b03166000908152602091909152604090206105849087610e1b565b6002828101546001600160a01b03166000908152602091909152604090206105ac9087610e1b565b60405186907f5152abf959f6564662358c2e52b702259b78bac5ee7842a0f01937e670efcc7d90600090a2505050505050565b6001600160a01b038a16610632576040805162461bcd60e51b8152602060048201526015602482015274696e76616c69642d6d616b65722d6164647265737360581b604482015290519081900360640190fd5b6001600160a01b03891661068d576040805162461bcd60e51b815260206004820152601a60248201527f696e76616c69642d66726f6d2d746f6b656e2d61646472657373000000000000604482015290519081900360640190fd5b6001600160a01b0388166106e8576040805162461bcd60e51b815260206004820152601860248201527f696e76616c69642d746f2d746f6b656e2d616464726573730000000000000000604482015290519081900360640190fd5b876001600160a01b0316896001600160a01b0316141561074f576040805162461bcd60e51b815260206004820152601960248201527f6475706c69636174652d746f6b656e2d61646472657373657300000000000000604482015290519081900360640190fd5b60008711610798576040805162461bcd60e51b815260206004820152601160248201527034b73b30b634b216b0b6b7bab73a16b4b760791b604482015290519081900360640190fd5b600086116107e6576040805162461bcd60e51b815260206004820152601660248201527534b73b30b634b216b0b6b7bab73a16b7baba16b6b4b760511b604482015290519081900360640190fd5b6001600160a01b038516610835576040805162461bcd60e51b81526020600482015260116024820152701a5b9d985b1a590b5c9958da5c1a595b9d607a1b604482015290519081900360640190fd5b42841161087c576040805162461bcd60e51b815260206004820152601060248201526f696e76616c69642d646561646c696e6560801b604482015290519081900360640190fd5b600061088d8b8b8b8b8b8b8b610359565b905061089c8b82868686610cb8565b6108e3576040805162461bcd60e51b81526020600482015260136024820152723737ba16b9b4b3b732b216b13c96b6b0b5b2b960691b604482015290519081900360640190fd5b600081815260036020526040902080546001600160a01b03161561093d576040805162461bcd60e51b815260206004820152600c60248201526b6f726465722d65786973747360a01b604482015290519081900360640190fd5b8b8160000160006101000a8154816001600160a01b0302191690836001600160a01b031602179055508a8160010160006101000a8154816001600160a01b0302191690836001600160a01b03160217905550898160020160006101000a8154816001600160a01b0302191690836001600160a01b03160217905550888160030181905550878160040181905550868160050160006101000a8154816001600160a01b0302191690836001600160a01b03160217905550858160060181905550848160070160006101000a81548160ff021916908360ff1602179055508381600801819055508281600901819055506000808260000160009054906101000a90046001600160a01b03166001600160a01b03166001600160a01b03168152602001908152602001600020829080600181540180825580915050600190039060005260206000200160009091909190915055600160008c6001600160a01b03166001600160a01b03168152602001908152602001600020829080600181540180825580915050600190039060005260206000200160009091909190915055600260008b6001600160a01b03166001600160a01b03168152602001908152602001600020829080600181540180825580915050600190039060005260206000200160009091909190915055817f918554b6bd6e2895ce6553de5de0e1a69db5289aa0e4fe193a0dcd1f1434747760405160405180910390a2505050505050505050505050565b60608167ffffffffffffffff81118015610b7957600080fd5b50604051908082528060200260200182016040528015610ba3578160200160208202803683370190505b50905060005b82811015610c1a578454848402820110610bde576000801b828281518110610bcd57fe5b602002602001018181525050610c12565b84818486020181548110610bee57fe5b9060005260206000200154828281518110610c0557fe5b6020026020010181815250505b600101610ba9565b509392505050565b604080517f02f6dc7ce3eb5b1bd3bb37a6ff443d8c9922f817e83adacce3f8c7cdda6fa1e46020808301919091526bffffffffffffffffffffffff1960609a8b1b811683850152988a1b8916605483015296891b88166068820152607c810195909552609c850193909352951b90931660bc82015260d0808201949094528251808203909401845260f001909152815191012090565b60008060018686868660405160008152602001604052604051808581526020018460ff1681526020018381526020018281526020019450505050506020604051602081039080840390855afa158015610d15573d6000803e3d6000fd5b505050602060405103516001600160a01b0316876001600160a01b03161490508015610d45576001915050610e12565b8560405160200180807f19457468657265756d205369676e6564204d6573736167653a0a333200000000815250601c0182815260200191505060405160208183030381529060405280519060200120955060018686868660405160008152602001604052604051808581526020018460ff1681526020018381526020018281526020019450505050506020604051602081039080840390855afa158015610df0573d6000803e3d6000fd5b505050602060405103516001600160a01b0316876001600160a01b0316149150505b95945050505050565b60005b8254811015610ea55781838281548110610e3457fe5b90600052602060002001541415610e9d57825483906000198101908110610e5757fe5b9060005260206000200154838281548110610e6e57fe5b906000526020600020018190555082805480610e8657fe5b600190038181906000526020600020016000905590555b600101610e1e565b50505056fea2646970667358221220557a074526e04b8da30fa8c8f1585adf2487265c96aa21e3c0b7c4998047efb864736f6c634300060c0033",
  "devdoc": {
    "kind": "dev",
    "methods": {},
    "version": 1
  },
  "userdoc": {
    "kind": "user",
    "methods": {},
    "version": 1
  },
  "storageLayout": {
    "storage": [
      {
        "astId": 1542,
        "contract": "contracts/OrderBook.sol:OrderBook",
        "label": "_hashesOfMaker",
        "offset": 0,
        "slot": "0",
        "type": "t_mapping(t_address,t_array(t_bytes32)dyn_storage)"
      },
      {
        "astId": 1547,
        "contract": "contracts/OrderBook.sol:OrderBook",
        "label": "_hashesOfFromToken",
        "offset": 0,
        "slot": "1",
        "type": "t_mapping(t_address,t_array(t_bytes32)dyn_storage)"
      },
      {
        "astId": 1552,
        "contract": "contracts/OrderBook.sol:OrderBook",
        "label": "_hashesOfToToken",
        "offset": 0,
        "slot": "2",
        "type": "t_mapping(t_address,t_array(t_bytes32)dyn_storage)"
      },
      {
        "astId": 1556,
        "contract": "contracts/OrderBook.sol:OrderBook",
        "label": "orders",
        "offset": 0,
        "slot": "3",
        "type": "t_mapping(t_bytes32,t_struct(Order)4913_storage)"
      }
    ],
    "types": {
      "t_address": {
        "encoding": "inplace",
        "label": "address",
        "numberOfBytes": "20"
      },
      "t_array(t_bytes32)dyn_storage": {
        "base": "t_bytes32",
        "encoding": "dynamic_array",
        "label": "bytes32[]",
        "numberOfBytes": "32"
      },
      "t_bytes32": {
        "encoding": "inplace",
        "label": "bytes32",
        "numberOfBytes": "32"
      },
      "t_mapping(t_address,t_array(t_bytes32)dyn_storage)": {
        "encoding": "mapping",
        "key": "t_address",
        "label": "mapping(address => bytes32[])",
        "numberOfBytes": "32",
        "value": "t_array(t_bytes32)dyn_storage"
      },
      "t_mapping(t_bytes32,t_struct(Order)4913_storage)": {
        "encoding": "mapping",
        "key": "t_bytes32",
        "label": "mapping(bytes32 => struct Orders.Order)",
        "numberOfBytes": "32",
        "value": "t_struct(Order)4913_storage"
      },
      "t_struct(Order)4913_storage": {
        "encoding": "inplace",
        "label": "struct Orders.Order",
        "members": [
          {
            "astId": 4894,
            "contract": "contracts/OrderBook.sol:OrderBook",
            "label": "maker",
            "offset": 0,
            "slot": "0",
            "type": "t_address"
          },
          {
            "astId": 4896,
            "contract": "contracts/OrderBook.sol:OrderBook",
            "label": "fromToken",
            "offset": 0,
            "slot": "1",
            "type": "t_address"
          },
          {
            "astId": 4898,
            "contract": "contracts/OrderBook.sol:OrderBook",
            "label": "toToken",
            "offset": 0,
            "slot": "2",
            "type": "t_address"
          },
          {
            "astId": 4900,
            "contract": "contracts/OrderBook.sol:OrderBook",
            "label": "amountIn",
            "offset": 0,
            "slot": "3",
            "type": "t_uint256"
          },
          {
            "astId": 4902,
            "contract": "contracts/OrderBook.sol:OrderBook",
            "label": "amountOutMin",
            "offset": 0,
            "slot": "4",
            "type": "t_uint256"
          },
          {
            "astId": 4904,
            "contract": "contracts/OrderBook.sol:OrderBook",
            "label": "recipient",
            "offset": 0,
            "slot": "5",
            "type": "t_address"
          },
          {
            "astId": 4906,
            "contract": "contracts/OrderBook.sol:OrderBook",
            "label": "deadline",
            "offset": 0,
            "slot": "6",
            "type": "t_uint256"
          },
          {
            "astId": 4908,
            "contract": "contracts/OrderBook.sol:OrderBook",
            "label": "v",
            "offset": 0,
            "slot": "7",
            "type": "t_uint8"
          },
          {
            "astId": 4910,
            "contract": "contracts/OrderBook.sol:OrderBook",
            "label": "r",
            "offset": 0,
            "slot": "8",
            "type": "t_bytes32"
          },
          {
            "astId": 4912,
            "contract": "contracts/OrderBook.sol:OrderBook",
            "label": "s",
            "offset": 0,
            "slot": "9",
            "type": "t_bytes32"
          }
        ],
        "numberOfBytes": "320"
      },
      "t_uint256": {
        "encoding": "inplace",
        "label": "uint256",
        "numberOfBytes": "32"
      },
      "t_uint8": {
        "encoding": "inplace",
        "label": "uint8",
        "numberOfBytes": "1"
      }
    }
  },
  "gasEstimates": {
    "creation": {
      "codeDepositCost": "761600",
      "executionCost": "792",
      "totalCost": "762392"
    },
    "external": {
      "cancelOrder(bytes32,uint8,bytes32,bytes32)": "infinite",
      "cancelOrderCallHash(bytes32)": "460",
      "createOrder(address,address,address,uint256,uint256,address,uint256,uint8,bytes32,bytes32)": "infinite",
      "createOrderCallHash(address,address,address,uint256,uint256,address,uint256)": "834",
      "hashesOfFromToken(address,uint256,uint256)": "infinite",
      "hashesOfMaker(address,uint256,uint256)": "infinite",
      "hashesOfToToken(address,uint256,uint256)": "infinite",
      "orders(bytes32)": "8788"
    },
    "internal": {
      "_hashes(bytes32[] storage pointer,uint256,uint256)": "infinite",
      "_removeHash(bytes32[] storage pointer,bytes32)": "infinite"
    }
  }
}