{
  "address": "0xafE076bFDDe5D2FA69419F712694C940EE360619",
  "abi": [
    {
      "inputs": [
        {
          "internalType": "contract ISettlement",
          "name": "_settlement",
          "type": "address"
        }
      ],
      "stateMutability": "nonpayable",
      "type": "constructor"
    },
    {
      "inputs": [
        {
          "components": [
            {
              "components": [
                {
                  "internalType": "address",
                  "name": "maker",
                  "type": "address"
                },
                {
                  "internalType": "address",
                  "name": "fromToken",
                  "type": "address"
                },
                {
                  "internalType": "address",
                  "name": "toToken",
                  "type": "address"
                },
                {
                  "internalType": "uint256",
                  "name": "amountIn",
                  "type": "uint256"
                },
                {
                  "internalType": "uint256",
                  "name": "amountOutMin",
                  "type": "uint256"
                },
                {
                  "internalType": "address",
                  "name": "recipient",
                  "type": "address"
                },
                {
                  "internalType": "uint256",
                  "name": "deadline",
                  "type": "uint256"
                },
                {
                  "internalType": "uint8",
                  "name": "v",
                  "type": "uint8"
                },
                {
                  "internalType": "bytes32",
                  "name": "r",
                  "type": "bytes32"
                },
                {
                  "internalType": "bytes32",
                  "name": "s",
                  "type": "bytes32"
                }
              ],
              "internalType": "struct Orders.Order",
              "name": "order",
              "type": "tuple"
            },
            {
              "internalType": "uint256",
              "name": "amountToFillIn",
              "type": "uint256"
            },
            {
              "internalType": "address[]",
              "name": "path",
              "type": "address[]"
            }
          ],
          "internalType": "struct ISettlement.FillOrderArgs",
          "name": "args",
          "type": "tuple"
        }
      ],
      "name": "fillOrder",
      "outputs": [
        {
          "internalType": "uint256",
          "name": "amountOut",
          "type": "uint256"
        }
      ],
      "stateMutability": "nonpayable",
      "type": "function"
    }
  ],
  "transactionHash": "0x53cc827d2d08b45b99c1901ffc1074803675032b3c6f0b443a3ad6cc538bf763",
  "args": [
    "0x379865e2c52ae77c5B7885919de0Bd99ff681aEA"
  ],
  "solcInputHash": "429a19cfb198cebceabea0c996893990",
  "bytecode": "0x608060405234801561001057600080fd5b506040516103f43803806103f483398101604081905261002f91610054565b600080546001600160a01b0319166001600160a01b0392909216919091179055610082565b600060208284031215610065578081fd5b81516001600160a01b038116811461007b578182fd5b9392505050565b610363806100916000396000f3fe608060405234801561001057600080fd5b506004361061002b5760003560e01c806368bce8a214610030575b600080fd5b61004361003e3660046100f9565b610059565b60405161005091906102ab565b60405180910390f35b6000805460405163345e745160e11b81526001600160a01b03909116906368bce8a29061008a9085906004016101ad565b602060405180830381600087803b1580156100a457600080fd5b505af11580156100b8573d6000803e3d6000fd5b505050506040513d601f19601f820116820180604052508101906100dc9190610139565b92915050565b80356001600160a01b03811681146100dc57600080fd5b60006020828403121561010a578081fd5b813567ffffffffffffffff811115610120578182fd5b82016101808185031215610132578182fd5b9392505050565b60006020828403121561014a578081fd5b5051919050565b6001600160a01b03169052565b60008284526020808501945082825b8581101561019b578183016001600160a01b0361018a82856100e2565b16885296830196915060010161016d565b509495945050505050565b60ff169052565b600060208252602083016101cd602084016101c883876100e2565b610151565b6101d781856102b4565b90506101e66040840182610151565b506101f460408401846102b4565b6102016060840182610151565b5060608301356080830152608083013560a083015261022360a08401846102b4565b61023060c0840182610151565b5060c083013560e083015261024860e084018461031b565b610100610257818501836101a6565b61012091508085013582850152506101408185013581850152610160915080850135828501525061028a818501856102cc565b6101808581015291506102a26101a08501838361015e565b95945050505050565b90815260200190565b600082356001600160a01b0381168114610132578182fd5b6000808335601e198436030181126102e2578283fd5b830160208101925035905067ffffffffffffffff81111561030257600080fd5b60208102360383131561031457600080fd5b9250929050565b6000823560ff81168114610132578182fdfea2646970667358221220cbe4c511a866d9ee50c0d4925823ddb1396b56219db55febbe2347cb342b4cad64736f6c634300060c0033",
  "devdoc": {
    "kind": "dev",
    "methods": {},
    "version": 1
  },
  "userdoc": {
    "kind": "user",
    "methods": {},
    "version": 1
  },
  "storageLayout": {
    "storage": [
      {
        "astId": 2419,
        "contract": "contracts/mock/SettlementCaller.sol:SettlementCaller",
        "label": "settlement",
        "offset": 0,
        "slot": "0",
        "type": "t_contract(ISettlement)1816"
      }
    ],
    "types": {
      "t_contract(ISettlement)1816": {
        "encoding": "inplace",
        "label": "contract ISettlement",
        "numberOfBytes": "20"
      }
    }
  }
}