{
  "abi": [
    {
      "inputs": [],
      "stateMutability": "nonpayable",
      "type": "constructor"
    },
    {
      "anonymous": false,
      "inputs": [
        {
          "indexed": true,
          "internalType": "bytes32",
          "name": "hash",
          "type": "bytes32"
        }
      ],
      "name": "OrderCreated",
      "type": "event"
    },
    {
      "inputs": [],
      "name": "DOMAIN_SEPARATOR",
      "outputs": [
        {
          "internalType": "bytes32",
          "name": "",
          "type": "bytes32"
        }
      ],
      "stateMutability": "view",
      "type": "function"
    },
    {
      "inputs": [
        {
          "internalType": "uint256",
          "name": "page",
          "type": "uint256"
        },
        {
          "internalType": "uint256",
          "name": "limit",
          "type": "uint256"
        }
      ],
      "name": "allHashes",
      "outputs": [
        {
          "internalType": "bytes32[]",
          "name": "",
          "type": "bytes32[]"
        }
      ],
      "stateMutability": "view",
      "type": "function"
    },
    {
      "inputs": [
        {
          "components": [
            {
              "internalType": "address",
              "name": "maker",
              "type": "address"
            },
            {
              "internalType": "address",
              "name": "fromToken",
              "type": "address"
            },
            {
              "internalType": "address",
              "name": "toToken",
              "type": "address"
            },
            {
              "internalType": "uint256",
              "name": "amountIn",
              "type": "uint256"
            },
            {
              "internalType": "uint256",
              "name": "amountOutMin",
              "type": "uint256"
            },
            {
              "internalType": "address",
              "name": "recipient",
              "type": "address"
            },
            {
              "internalType": "uint256",
              "name": "deadline",
              "type": "uint256"
            },
            {
              "internalType": "uint8",
              "name": "v",
              "type": "uint8"
            },
            {
              "internalType": "bytes32",
              "name": "r",
              "type": "bytes32"
            },
            {
              "internalType": "bytes32",
              "name": "s",
              "type": "bytes32"
            }
          ],
          "internalType": "struct Orders.Order",
          "name": "order",
          "type": "tuple"
        }
      ],
      "name": "createOrder",
      "outputs": [],
      "stateMutability": "nonpayable",
      "type": "function"
    },
    {
      "inputs": [
        {
          "internalType": "address",
          "name": "fromToken",
          "type": "address"
        },
        {
          "internalType": "uint256",
          "name": "page",
          "type": "uint256"
        },
        {
          "internalType": "uint256",
          "name": "limit",
          "type": "uint256"
        }
      ],
      "name": "hashesOfFromToken",
      "outputs": [
        {
          "internalType": "bytes32[]",
          "name": "",
          "type": "bytes32[]"
        }
      ],
      "stateMutability": "view",
      "type": "function"
    },
    {
      "inputs": [
        {
          "internalType": "address",
          "name": "maker",
          "type": "address"
        },
        {
          "internalType": "uint256",
          "name": "page",
          "type": "uint256"
        },
        {
          "internalType": "uint256",
          "name": "limit",
          "type": "uint256"
        }
      ],
      "name": "hashesOfMaker",
      "outputs": [
        {
          "internalType": "bytes32[]",
          "name": "",
          "type": "bytes32[]"
        }
      ],
      "stateMutability": "view",
      "type": "function"
    },
    {
      "inputs": [
        {
          "internalType": "address",
          "name": "toToken",
          "type": "address"
        },
        {
          "internalType": "uint256",
          "name": "page",
          "type": "uint256"
        },
        {
          "internalType": "uint256",
          "name": "limit",
          "type": "uint256"
        }
      ],
      "name": "hashesOfToToken",
      "outputs": [
        {
          "internalType": "bytes32[]",
          "name": "",
          "type": "bytes32[]"
        }
      ],
      "stateMutability": "view",
      "type": "function"
    },
    {
      "inputs": [],
      "name": "numberOfAllHashes",
      "outputs": [
        {
          "internalType": "uint256",
          "name": "",
          "type": "uint256"
        }
      ],
      "stateMutability": "view",
      "type": "function"
    },
    {
      "inputs": [
        {
          "internalType": "address",
          "name": "fromToken",
          "type": "address"
        }
      ],
      "name": "numberOfHashesOfFromToken",
      "outputs": [
        {
          "internalType": "uint256",
          "name": "",
          "type": "uint256"
        }
      ],
      "stateMutability": "view",
      "type": "function"
    },
    {
      "inputs": [
        {
          "internalType": "address",
          "name": "maker",
          "type": "address"
        }
      ],
      "name": "numberOfHashesOfMaker",
      "outputs": [
        {
          "internalType": "uint256",
          "name": "",
          "type": "uint256"
        }
      ],
      "stateMutability": "view",
      "type": "function"
    },
    {
      "inputs": [
        {
          "internalType": "address",
          "name": "toToken",
          "type": "address"
        }
      ],
      "name": "numberOfHashesOfToToken",
      "outputs": [
        {
          "internalType": "uint256",
          "name": "",
          "type": "uint256"
        }
      ],
      "stateMutability": "view",
      "type": "function"
    },
    {
      "inputs": [
        {
          "internalType": "bytes32",
          "name": "",
          "type": "bytes32"
        }
      ],
      "name": "orderOfHash",
      "outputs": [
        {
          "internalType": "address",
          "name": "maker",
          "type": "address"
        },
        {
          "internalType": "address",
          "name": "fromToken",
          "type": "address"
        },
        {
          "internalType": "address",
          "name": "toToken",
          "type": "address"
        },
        {
          "internalType": "uint256",
          "name": "amountIn",
          "type": "uint256"
        },
        {
          "internalType": "uint256",
          "name": "amountOutMin",
          "type": "uint256"
        },
        {
          "internalType": "address",
          "name": "recipient",
          "type": "address"
        },
        {
          "internalType": "uint256",
          "name": "deadline",
          "type": "uint256"
        },
        {
          "internalType": "uint8",
          "name": "v",
          "type": "uint8"
        },
        {
          "internalType": "bytes32",
          "name": "r",
          "type": "bytes32"
        },
        {
          "internalType": "bytes32",
          "name": "s",
          "type": "bytes32"
        }
      ],
      "stateMutability": "view",
      "type": "function"
    }
  ],
  "address": "0x9c60ee738614be990e4671d005c0232ad0753408",
  "args": [],
  "solcInputHash": "0x16a6f6a2f8d54bcf5b746dca8a026a4199dcf08a693d4a8bd281165e6d075581",
  "bytecode": "0x60a060405234801561001057600080fd5b50604051469061008c907f8b73c3c69bb8fe3d512ecc4cf759cc79239f7b179b0ffacaa9a75d522b39400f907f84ec3e40ac87b7e93d40b42ac60cbcf224a757106614dac5eb0cc5fc9be1f03c907fc89efdaa54c0f20c7adf612882df0950f5a951637e0307cdcb4c672f298b8bc690859030906020016100ad565b60408051601f198184030181529190528051602090910120608052506100d9565b9485526020850193909352604084019190915260608301526001600160a01b0316608082015260a00190565b608051610fb76100f86000398061026e528061058e5250610fb76000f3fe608060405234801561001057600080fd5b50600436106100a95760003560e01c80635fd45d24116100715780635fd45d241461012557806365f7a5511461013857806375af1c361461014b578063bceb45db14610153578063d08b34bb1461017c578063df4c1b4114610191576100a9565b806303e0992f146100ae5780630777aa32146100d757806314eaa868146100ea5780633644e5151461010a5780633d91efcf14610112575b600080fd5b6100c16100bc366004610b26565b6101a4565b6040516100ce9190610d1a565b60405180910390f35b6100c16100e5366004610b26565b6101bf565b6100fd6100f8366004610b41565b6101da565b6040516100ce9190610cd6565b6100c161026c565b6100c1610120366004610b26565b610290565b6100fd610133366004610b41565b6102ab565b6100fd610146366004610b41565b610333565b6100c16103bb565b610166610161366004610b74565b6103c1565b6040516100ce9a99989796959493929190610c77565b61018f61018a366004610b8c565b610427565b005b6100fd61019f366004610c3b565b6107c5565b6001600160a01b031660009081526002602052604090205490565b6001600160a01b031660009081526001602052604090205490565b6060610264838360026000886001600160a01b03166001600160a01b0316815260200190815260200160002080548060200260200160405190810160405280929190818152602001828054801561025057602002820191906000526020600020905b81548152602001906001019080831161023c575b50505050506108339092919063ffffffff16565b949350505050565b7f000000000000000000000000000000000000000000000000000000000000000081565b6001600160a01b031660009081526003602052604090205490565b6060610264838360016000886001600160a01b03166001600160a01b03168152602001908152602001600020805480602002602001604051908101604052809291908181526020018280548015610250576020028201919060005260206000209081548152602001906001019080831161023c5750505050506108339092919063ffffffff16565b6060610264838360036000886001600160a01b03166001600160a01b03168152602001908152602001600020805480602002602001604051908101604052809291908181526020018280548015610250576020028201919060005260206000209081548152602001906001019080831161023c5750505050506108339092919063ffffffff16565b60005490565b600460208190526000918252604090912080546001820154600283015460038401549484015460058501546006860154600787015460088801546009909801546001600160a01b0397881699968816989588169794959390941693919260ff909116918a565b80516001600160a01b03166104575760405162461bcd60e51b815260040161044e90610e01565b60405180910390fd5b60208101516001600160a01b03166104815760405162461bcd60e51b815260040161044e90610ec1565b60408101516001600160a01b03166104ab5760405162461bcd60e51b815260040161044e90610f23565b80604001516001600160a01b031681602001516001600160a01b031614156104e55760405162461bcd60e51b815260040161044e90610e60565b60008160600151116105095760405162461bcd60e51b815260040161044e90610ef8565b600081608001511161052d5760405162461bcd60e51b815260040161044e90610e30565b60a08101516001600160a01b03166105575760405162461bcd60e51b815260040161044e90610dab565b428160c001511161057a5760405162461bcd60e51b815260040161044e90610e97565b6000610585826108f2565b905060006105c47f0000000000000000000000000000000000000000000000000000000000000000838560e0015186610100015187610120015161096a565b90506001600160a01b038116158015906105ea575082516001600160a01b038281169116145b6106065760405162461bcd60e51b815260040161044e90610dd6565b6000828152600460205260409020546001600160a01b03161561063b5760405162461bcd60e51b815260040161044e90610d85565b6000828152600460208181526040808420875181546001600160a01b03199081166001600160a01b039283161783559389015160018301805486169183169190911790559188015160028201805485169184169190911790556060880151600382015560808801519381019390935560a0870151600584018054909316911617905560c08501516006820181905560e086015160078301805460ff191660ff9092169190911790556101008601516008830155610120860151600990920191909155610709919084906109f3565b82516001600160a01b0316600090815260016020526040902060c0840151610733919084906109f3565b61076a6002600085602001516001600160a01b03166001600160a01b03168152602001908152602001600020838560c001516109f3565b6040808401516001600160a01b0316600090815260036020522060c0840151610795919084906109f3565b60405182907f918554b6bd6e2895ce6553de5de0e1a69db5289aa0e4fe193a0dcd1f1434747790600090a2505050565b606061082a83836000805480602002602001604051908101604052809291908181526020018280548015610250576020028201919060005260206000209081548152602001906001019080831161023c5750505050506108339092919063ffffffff16565b90505b92915050565b60608167ffffffffffffffff8111801561084c57600080fd5b50604051908082528060200260200182016040528015610876578160200160208202803683370190505b50905060005b828110156108ea5784518184860201106108b1576000801b8282815181106108a057fe5b6020026020010181815250506108e2565b848184860201815181106108c157fe5b60200260200101518282815181106108d557fe5b6020026020010181815250505b60010161087c565b509392505050565b80516020808301516040808501516060860151608087015160a088015160c0890151945160009861094d987f7c228c78bd055996a44b5046fb56fa7c28c66bce92d9dc584f742b2cd76a140f98919791969594939201610d23565b604051602081830303815290604052805190602001209050919050565b6000808686604051602001610980929190610c5c565b604051602081830303815290604052805190602001209050600181868686604051600081526020016040526040516109bb9493929190610d67565b6020604051602081039080840390855afa1580156109dd573d6000803e3d6000fd5b5050604051601f19015198975050505050505050565b8254610a1357825460018101845560008481526020902001829055610af9565b60001960005b8454811015610a66578260046000878481548110610a3357fe5b90600052602060002001548152602001908152602001600020600601541115610a5e57809150610a66565b600101610a19565b50600019811415610a8c5750825460018101845560008481526020902001829055610af9565b835460018101855560008590525b81811115610add57846001820381548110610ab157fe5b9060005260206000200154858281548110610ac857fe5b60009182526020909120015560001901610a9a565b5082848281548110610aeb57fe5b600091825260209091200155505b505050565b80356001600160a01b038116811461082d57600080fd5b803560ff8116811461082d57600080fd5b600060208284031215610b37578081fd5b61082a8383610afe565b600080600060608486031215610b55578182fd5b610b5f8585610afe565b95602085013595506040909401359392505050565b600060208284031215610b85578081fd5b5035919050565b6000610140808385031215610b9f578182fd5b610ba881610f5a565b9050610bb48484610afe565b8152610bc38460208501610afe565b6020820152610bd58460408501610afe565b60408201526060830135606082015260808301356080820152610bfb8460a08501610afe565b60a082015260c083013560c0820152610c178460e08501610b15565b60e08201526101008381013590820152610120928301359281019290925250919050565b60008060408385031215610c4d578182fd5b50508035926020909101359150565b61190160f01b81526002810192909252602282015260420190565b6001600160a01b039a8b168152988a1660208a0152968916604089015260608801959095526080870193909352951660a085015260c084019490945260ff90931660e08301526101008201929092526101208101919091526101400190565b6020808252825182820181905260009190848201906040850190845b81811015610d0e57835183529284019291840191600101610cf2565b50909695505050505050565b90815260200190565b9788526001600160a01b03968716602089015294861660408801529285166060870152608086019190915260a085015290911660c083015260e08201526101000190565b93845260ff9290921660208401526040830152606082015260800190565b6020808252600c908201526b6f726465722d65786973747360a01b604082015260600190565b6020808252601190820152701a5b9d985b1a590b5c9958da5c1a595b9d607a1b604082015260600190565b602080825260119082015270696e76616c69642d7369676e617475726560781b604082015260600190565b602080825260159082015274696e76616c69642d6d616b65722d6164647265737360581b604082015260600190565b60208082526016908201527534b73b30b634b216b0b6b7bab73a16b7baba16b6b4b760511b604082015260600190565b60208082526019908201527f6475706c69636174652d746f6b656e2d61646472657373657300000000000000604082015260600190565b60208082526010908201526f696e76616c69642d646561646c696e6560801b604082015260600190565b6020808252601a908201527f696e76616c69642d66726f6d2d746f6b656e2d61646472657373000000000000604082015260600190565b60208082526011908201527034b73b30b634b216b0b6b7bab73a16b4b760791b604082015260600190565b60208082526018908201527f696e76616c69642d746f2d746f6b656e2d616464726573730000000000000000604082015260600190565b60405181810167ffffffffffffffff81118282101715610f7957600080fd5b60405291905056fea2646970667358221220a397d24d7d2af808a60f497be1f4b24a0056daf0f1d221256a225d001aff54e264736f6c634300060c0033",
  "devdoc": {
    "kind": "dev",
    "methods": {},
    "version": 1
  },
  "userdoc": {
    "kind": "user",
    "methods": {},
    "version": 1
  },
  "storageLayout": {
    "storage": [
      {
        "astId": 1544,
        "contract": "contracts/OrderBook.sol:OrderBook",
        "label": "_allHashes",
        "offset": 0,
        "slot": "0",
        "type": "t_array(t_bytes32)dyn_storage"
      },
      {
        "astId": 1549,
        "contract": "contracts/OrderBook.sol:OrderBook",
        "label": "_hashesOfMaker",
        "offset": 0,
        "slot": "1",
        "type": "t_mapping(t_address,t_array(t_bytes32)dyn_storage)"
      },
      {
        "astId": 1554,
        "contract": "contracts/OrderBook.sol:OrderBook",
        "label": "_hashesOfFromToken",
        "offset": 0,
        "slot": "2",
        "type": "t_mapping(t_address,t_array(t_bytes32)dyn_storage)"
      },
      {
        "astId": 1559,
        "contract": "contracts/OrderBook.sol:OrderBook",
        "label": "_hashesOfToToken",
        "offset": 0,
        "slot": "3",
        "type": "t_mapping(t_address,t_array(t_bytes32)dyn_storage)"
      },
      {
        "astId": 1563,
        "contract": "contracts/OrderBook.sol:OrderBook",
        "label": "orderOfHash",
        "offset": 0,
        "slot": "4",
        "type": "t_mapping(t_bytes32,t_struct(Order)5349_storage)"
      }
    ],
    "types": {
      "t_address": {
        "encoding": "inplace",
        "label": "address",
        "numberOfBytes": "20"
      },
      "t_array(t_bytes32)dyn_storage": {
        "base": "t_bytes32",
        "encoding": "dynamic_array",
        "label": "bytes32[]",
        "numberOfBytes": "32"
      },
      "t_bytes32": {
        "encoding": "inplace",
        "label": "bytes32",
        "numberOfBytes": "32"
      },
      "t_mapping(t_address,t_array(t_bytes32)dyn_storage)": {
        "encoding": "mapping",
        "key": "t_address",
        "label": "mapping(address => bytes32[])",
        "numberOfBytes": "32",
        "value": "t_array(t_bytes32)dyn_storage"
      },
      "t_mapping(t_bytes32,t_struct(Order)5349_storage)": {
        "encoding": "mapping",
        "key": "t_bytes32",
        "label": "mapping(bytes32 => struct Orders.Order)",
        "numberOfBytes": "32",
        "value": "t_struct(Order)5349_storage"
      },
      "t_struct(Order)5349_storage": {
        "encoding": "inplace",
        "label": "struct Orders.Order",
        "members": [
          {
            "astId": 5330,
            "contract": "contracts/OrderBook.sol:OrderBook",
            "label": "maker",
            "offset": 0,
            "slot": "0",
            "type": "t_address"
          },
          {
            "astId": 5332,
            "contract": "contracts/OrderBook.sol:OrderBook",
            "label": "fromToken",
            "offset": 0,
            "slot": "1",
            "type": "t_address"
          },
          {
            "astId": 5334,
            "contract": "contracts/OrderBook.sol:OrderBook",
            "label": "toToken",
            "offset": 0,
            "slot": "2",
            "type": "t_address"
          },
          {
            "astId": 5336,
            "contract": "contracts/OrderBook.sol:OrderBook",
            "label": "amountIn",
            "offset": 0,
            "slot": "3",
            "type": "t_uint256"
          },
          {
            "astId": 5338,
            "contract": "contracts/OrderBook.sol:OrderBook",
            "label": "amountOutMin",
            "offset": 0,
            "slot": "4",
            "type": "t_uint256"
          },
          {
            "astId": 5340,
            "contract": "contracts/OrderBook.sol:OrderBook",
            "label": "recipient",
            "offset": 0,
            "slot": "5",
            "type": "t_address"
          },
          {
            "astId": 5342,
            "contract": "contracts/OrderBook.sol:OrderBook",
            "label": "deadline",
            "offset": 0,
            "slot": "6",
            "type": "t_uint256"
          },
          {
            "astId": 5344,
            "contract": "contracts/OrderBook.sol:OrderBook",
            "label": "v",
            "offset": 0,
            "slot": "7",
            "type": "t_uint8"
          },
          {
            "astId": 5346,
            "contract": "contracts/OrderBook.sol:OrderBook",
            "label": "r",
            "offset": 0,
            "slot": "8",
            "type": "t_bytes32"
          },
          {
            "astId": 5348,
            "contract": "contracts/OrderBook.sol:OrderBook",
            "label": "s",
            "offset": 0,
            "slot": "9",
            "type": "t_bytes32"
          }
        ],
        "numberOfBytes": "320"
      },
      "t_uint256": {
        "encoding": "inplace",
        "label": "uint256",
        "numberOfBytes": "32"
      },
      "t_uint8": {
        "encoding": "inplace",
        "label": "uint8",
        "numberOfBytes": "1"
      }
    }
  },
  "gasEstimates": {
    "creation": {
      "codeDepositCost": "804600",
      "executionCost": "infinite",
      "totalCost": "infinite"
    },
    "external": {
      "DOMAIN_SEPARATOR()": "infinite",
      "allHashes(uint256,uint256)": "infinite",
      "createOrder((address,address,address,uint256,uint256,address,uint256,uint8,bytes32,bytes32))": "infinite",
      "hashesOfFromToken(address,uint256,uint256)": "infinite",
      "hashesOfMaker(address,uint256,uint256)": "infinite",
      "hashesOfToToken(address,uint256,uint256)": "infinite",
      "numberOfAllHashes()": "1072",
      "numberOfHashesOfFromToken(address)": "infinite",
      "numberOfHashesOfMaker(address)": "infinite",
      "numberOfHashesOfToToken(address)": "infinite",
      "orderOfHash(bytes32)": "8890"
    },
    "internal": {
      "_addHash(bytes32[] storage pointer,bytes32,uint256)": "infinite"
    }
  }
}