{
  "abi": [
    {
      "anonymous": false,
      "inputs": [
        {
          "indexed": true,
          "internalType": "bytes32",
          "name": "hash",
          "type": "bytes32"
        }
      ],
      "name": "OrderCreated",
      "type": "event"
    },
    {
      "inputs": [
        {
          "internalType": "uint256",
          "name": "page",
          "type": "uint256"
        },
        {
          "internalType": "uint256",
          "name": "limit",
          "type": "uint256"
        }
      ],
      "name": "allHashes",
      "outputs": [
        {
          "internalType": "bytes32[]",
          "name": "",
          "type": "bytes32[]"
        }
      ],
      "stateMutability": "view",
      "type": "function"
    },
    {
      "inputs": [
        {
          "internalType": "address",
          "name": "maker",
          "type": "address"
        },
        {
          "internalType": "address",
          "name": "fromToken",
          "type": "address"
        },
        {
          "internalType": "address",
          "name": "toToken",
          "type": "address"
        },
        {
          "internalType": "uint256",
          "name": "amountIn",
          "type": "uint256"
        },
        {
          "internalType": "uint256",
          "name": "amountOutMin",
          "type": "uint256"
        },
        {
          "internalType": "address",
          "name": "recipient",
          "type": "address"
        },
        {
          "internalType": "uint256",
          "name": "deadline",
          "type": "uint256"
        },
        {
          "internalType": "uint8",
          "name": "v",
          "type": "uint8"
        },
        {
          "internalType": "bytes32",
          "name": "r",
          "type": "bytes32"
        },
        {
          "internalType": "bytes32",
          "name": "s",
          "type": "bytes32"
        }
      ],
      "name": "createOrder",
      "outputs": [],
      "stateMutability": "nonpayable",
      "type": "function"
    },
    {
      "inputs": [
        {
          "internalType": "address",
          "name": "maker",
          "type": "address"
        },
        {
          "internalType": "address",
          "name": "fromToken",
          "type": "address"
        },
        {
          "internalType": "address",
          "name": "toToken",
          "type": "address"
        },
        {
          "internalType": "uint256",
          "name": "amountIn",
          "type": "uint256"
        },
        {
          "internalType": "uint256",
          "name": "amountOutMin",
          "type": "uint256"
        },
        {
          "internalType": "address",
          "name": "recipient",
          "type": "address"
        },
        {
          "internalType": "uint256",
          "name": "deadline",
          "type": "uint256"
        }
      ],
      "name": "createOrderCallHash",
      "outputs": [
        {
          "internalType": "bytes32",
          "name": "",
          "type": "bytes32"
        }
      ],
      "stateMutability": "pure",
      "type": "function"
    },
    {
      "inputs": [
        {
          "internalType": "address",
          "name": "fromToken",
          "type": "address"
        },
        {
          "internalType": "uint256",
          "name": "page",
          "type": "uint256"
        },
        {
          "internalType": "uint256",
          "name": "limit",
          "type": "uint256"
        }
      ],
      "name": "hashesOfFromToken",
      "outputs": [
        {
          "internalType": "bytes32[]",
          "name": "",
          "type": "bytes32[]"
        }
      ],
      "stateMutability": "view",
      "type": "function"
    },
    {
      "inputs": [
        {
          "internalType": "address",
          "name": "maker",
          "type": "address"
        },
        {
          "internalType": "uint256",
          "name": "page",
          "type": "uint256"
        },
        {
          "internalType": "uint256",
          "name": "limit",
          "type": "uint256"
        }
      ],
      "name": "hashesOfMaker",
      "outputs": [
        {
          "internalType": "bytes32[]",
          "name": "",
          "type": "bytes32[]"
        }
      ],
      "stateMutability": "view",
      "type": "function"
    },
    {
      "inputs": [
        {
          "internalType": "address",
          "name": "toToken",
          "type": "address"
        },
        {
          "internalType": "uint256",
          "name": "page",
          "type": "uint256"
        },
        {
          "internalType": "uint256",
          "name": "limit",
          "type": "uint256"
        }
      ],
      "name": "hashesOfToToken",
      "outputs": [
        {
          "internalType": "bytes32[]",
          "name": "",
          "type": "bytes32[]"
        }
      ],
      "stateMutability": "view",
      "type": "function"
    },
    {
      "inputs": [],
      "name": "numberOfAllHashes",
      "outputs": [
        {
          "internalType": "uint256",
          "name": "",
          "type": "uint256"
        }
      ],
      "stateMutability": "view",
      "type": "function"
    },
    {
      "inputs": [
        {
          "internalType": "address",
          "name": "fromToken",
          "type": "address"
        }
      ],
      "name": "numberOfHashesOfFromToken",
      "outputs": [
        {
          "internalType": "uint256",
          "name": "",
          "type": "uint256"
        }
      ],
      "stateMutability": "view",
      "type": "function"
    },
    {
      "inputs": [
        {
          "internalType": "address",
          "name": "maker",
          "type": "address"
        }
      ],
      "name": "numberOfHashesOfMaker",
      "outputs": [
        {
          "internalType": "uint256",
          "name": "",
          "type": "uint256"
        }
      ],
      "stateMutability": "view",
      "type": "function"
    },
    {
      "inputs": [
        {
          "internalType": "address",
          "name": "toToken",
          "type": "address"
        }
      ],
      "name": "numberOfHashesOfToToken",
      "outputs": [
        {
          "internalType": "uint256",
          "name": "",
          "type": "uint256"
        }
      ],
      "stateMutability": "view",
      "type": "function"
    },
    {
      "inputs": [
        {
          "internalType": "bytes32",
          "name": "",
          "type": "bytes32"
        }
      ],
      "name": "orderOfHash",
      "outputs": [
        {
          "internalType": "address",
          "name": "maker",
          "type": "address"
        },
        {
          "internalType": "address",
          "name": "fromToken",
          "type": "address"
        },
        {
          "internalType": "address",
          "name": "toToken",
          "type": "address"
        },
        {
          "internalType": "uint256",
          "name": "amountIn",
          "type": "uint256"
        },
        {
          "internalType": "uint256",
          "name": "amountOutMin",
          "type": "uint256"
        },
        {
          "internalType": "address",
          "name": "recipient",
          "type": "address"
        },
        {
          "internalType": "uint256",
          "name": "deadline",
          "type": "uint256"
        },
        {
          "internalType": "uint8",
          "name": "v",
          "type": "uint8"
        },
        {
          "internalType": "bytes32",
          "name": "r",
          "type": "bytes32"
        },
        {
          "internalType": "bytes32",
          "name": "s",
          "type": "bytes32"
        }
      ],
      "stateMutability": "view",
      "type": "function"
    }
  ],
  "address": "0x7154e82eff6b296391421530d64fa99f58ae4b74",
  "args": [],
  "solcInputHash": "0x38b912a596ed050a27bcb35bb008a72d258f2df007b3ff8a8cbabda2e1d513c1",
  "bytecode": "0x608060405234801561001057600080fd5b50610e78806100206000396000f3fe608060405234801561001057600080fd5b50600436106100a95760003560e01c80635fd45d24116100715780635fd45d241461020657806365f7a5511461023857806375af1c361461026a578063bceb45db14610272578063df4c1b411461030b578063ed421aa61461032e576100a9565b806303e0992f146100ae5780630777aa32146100e657806314eaa8681461010c578063257ce8911461018e5780633d91efcf146101e0575b600080fd5b6100d4600480360360208110156100c457600080fd5b50356001600160a01b031661039a565b60408051918252519081900360200190f35b6100d4600480360360208110156100fc57600080fd5b50356001600160a01b03166103b5565b61013e6004803603606081101561012257600080fd5b506001600160a01b0381351690602081013590604001356103d0565b60408051602080825283518183015283519192839290830191858101910280838360005b8381101561017a578181015183820152602001610162565b505050509050019250505060405180910390f35b6100d4600480360360e08110156101a457600080fd5b506001600160a01b0381358116916020810135821691604082013581169160608101359160808201359160a08101359091169060c00135610462565b6100d4600480360360208110156101f657600080fd5b50356001600160a01b031661047f565b61013e6004803603606081101561021c57600080fd5b506001600160a01b03813516906020810135906040013561049a565b61013e6004803603606081101561024e57600080fd5b506001600160a01b038135169060208101359060400135610522565b6100d46105aa565b61028f6004803603602081101561028857600080fd5b50356105b0565b604051808b6001600160a01b031681526020018a6001600160a01b03168152602001896001600160a01b03168152602001888152602001878152602001866001600160a01b031681526020018581526020018460ff1681526020018381526020018281526020019a505050505050505050505060405180910390f35b61013e6004803603604081101561032157600080fd5b5080359060200135610616565b610398600480360361014081101561034557600080fd5b506001600160a01b0381358116916020810135821691604082013581169160608101359160808201359160a08101359091169060c08101359060ff60e08201351690610100810135906101200135610682565b005b6001600160a01b031660009081526002602052604090205490565b6001600160a01b031660009081526001602052604090205490565b606061045a838360026000886001600160a01b03166001600160a01b0316815260200190815260200160002080548060200260200160405190810160405280929190818152602001828054801561044657602002820191906000526020600020905b815481526020019060010190808311610432575b5050505050610b0c9092919063ffffffff16565b949350505050565b600061047388888888888888610bcb565b98975050505050505050565b6001600160a01b031660009081526003602052604090205490565b606061045a838360016000886001600160a01b03166001600160a01b031681526020019081526020016000208054806020026020016040519081016040528092919081815260200182805480156104465760200282019190600052602060002090815481526020019060010190808311610432575050505050610b0c9092919063ffffffff16565b606061045a838360036000886001600160a01b03166001600160a01b031681526020019081526020016000208054806020026020016040519081016040528092919081815260200182805480156104465760200282019190600052602060002090815481526020019060010190808311610432575050505050610b0c9092919063ffffffff16565b60005490565b600460208190526000918252604090912080546001820154600283015460038401549484015460058501546006860154600787015460088801546009909801546001600160a01b0397881699968816989588169794959390941693919260ff909116918a565b606061067b838360008054806020026020016040519081016040528092919081815260200182805480156104465760200282019190600052602060002090815481526020019060010190808311610432575050505050610b0c9092919063ffffffff16565b9392505050565b6001600160a01b038a166106d5576040805162461bcd60e51b8152602060048201526015602482015274696e76616c69642d6d616b65722d6164647265737360581b604482015290519081900360640190fd5b6001600160a01b038916610730576040805162461bcd60e51b815260206004820152601a60248201527f696e76616c69642d66726f6d2d746f6b656e2d61646472657373000000000000604482015290519081900360640190fd5b6001600160a01b03881661078b576040805162461bcd60e51b815260206004820152601860248201527f696e76616c69642d746f2d746f6b656e2d616464726573730000000000000000604482015290519081900360640190fd5b876001600160a01b0316896001600160a01b031614156107f2576040805162461bcd60e51b815260206004820152601960248201527f6475706c69636174652d746f6b656e2d61646472657373657300000000000000604482015290519081900360640190fd5b6000871161083b576040805162461bcd60e51b815260206004820152601160248201527034b73b30b634b216b0b6b7bab73a16b4b760791b604482015290519081900360640190fd5b60008611610889576040805162461bcd60e51b815260206004820152601660248201527534b73b30b634b216b0b6b7bab73a16b7baba16b6b4b760511b604482015290519081900360640190fd5b6001600160a01b0385166108d8576040805162461bcd60e51b81526020600482015260116024820152701a5b9d985b1a590b5c9958da5c1a595b9d607a1b604482015290519081900360640190fd5b42841161091f576040805162461bcd60e51b815260206004820152601060248201526f696e76616c69642d646561646c696e6560801b604482015290519081900360640190fd5b60006109308b8b8b8b8b8b8b610462565b905061093f8b82868686610c61565b610986576040805162461bcd60e51b81526020600482015260136024820152723737ba16b9b4b3b732b216b13c96b6b0b5b2b960691b604482015290519081900360640190fd5b600081815260046020526040902080546001600160a01b0316156109e0576040805162461bcd60e51b815260206004820152600c60248201526b6f726465722d65786973747360a01b604482015290519081900360640190fd5b80546001600160a01b03199081166001600160a01b038e811691909117835560018301805483168e831617905560028301805483168d8316179055600383018b9055600483018a90556005830180549092169089161790556006810186905560078101805460ff191660ff87161790556008810184905560098101839055610a6a60008388610d37565b6001600160a01b038c166000908152600160205260409020610a8d908388610d37565b6001600160a01b038b166000908152600260205260409020610ab0908388610d37565b6001600160a01b038a166000908152600360205260409020610ad3908388610d37565b60405182907f918554b6bd6e2895ce6553de5de0e1a69db5289aa0e4fe193a0dcd1f1434747790600090a2505050505050505050505050565b60608167ffffffffffffffff81118015610b2557600080fd5b50604051908082528060200260200182016040528015610b4f578160200160208202803683370190505b50905060005b82811015610bc3578451818486020110610b8a576000801b828281518110610b7957fe5b602002602001018181525050610bbb565b84818486020181518110610b9a57fe5b6020026020010151828281518110610bae57fe5b6020026020010181815250505b600101610b55565b509392505050565b604080517f02f6dc7ce3eb5b1bd3bb37a6ff443d8c9922f817e83adacce3f8c7cdda6fa1e46020808301919091526bffffffffffffffffffffffff1960609a8b1b811683850152988a1b8916605483015296891b88166068820152607c810195909552609c850193909352951b90931660bc82015260d0808201949094528251808203909401845260f001909152815191012090565b60008460405160200180807f19457468657265756d205369676e6564204d6573736167653a0a333200000000815250601c0182815260200191505060405160208183030381529060405280519060200120945060018585858560405160008152602001604052604051808581526020018460ff1681526020018381526020018281526020019450505050506020604051602081039080840390855afa158015610d0e573d6000803e3d6000fd5b505050602060405103516001600160a01b0316866001600160a01b031614905095945050505050565b8254610d5757825460018101845560008481526020902001829055610e3d565b60001960005b8454811015610daa578260046000878481548110610d7757fe5b90600052602060002001548152602001908152602001600020600601541115610da257809150610daa565b600101610d5d565b50600019811415610dd05750825460018101845560008481526020902001829055610e3d565b835460018101855560008590525b81811115610e2157846001820381548110610df557fe5b9060005260206000200154858281548110610e0c57fe5b60009182526020909120015560001901610dde565b5082848281548110610e2f57fe5b600091825260209091200155505b50505056fea26469706673582212204add9b2023f23e979fc4f50eeb8c70a33bb0b1a31c13f486f9ba386a387d181364736f6c634300060c0033",
  "devdoc": {
    "kind": "dev",
    "methods": {},
    "version": 1
  },
  "userdoc": {
    "kind": "user",
    "methods": {},
    "version": 1
  },
  "storageLayout": {
    "storage": [
      {
        "astId": 1541,
        "contract": "contracts/OrderBook.sol:OrderBook",
        "label": "_allHashes",
        "offset": 0,
        "slot": "0",
        "type": "t_array(t_bytes32)dyn_storage"
      },
      {
        "astId": 1546,
        "contract": "contracts/OrderBook.sol:OrderBook",
        "label": "_hashesOfMaker",
        "offset": 0,
        "slot": "1",
        "type": "t_mapping(t_address,t_array(t_bytes32)dyn_storage)"
      },
      {
        "astId": 1551,
        "contract": "contracts/OrderBook.sol:OrderBook",
        "label": "_hashesOfFromToken",
        "offset": 0,
        "slot": "2",
        "type": "t_mapping(t_address,t_array(t_bytes32)dyn_storage)"
      },
      {
        "astId": 1556,
        "contract": "contracts/OrderBook.sol:OrderBook",
        "label": "_hashesOfToToken",
        "offset": 0,
        "slot": "3",
        "type": "t_mapping(t_address,t_array(t_bytes32)dyn_storage)"
      },
      {
        "astId": 1560,
        "contract": "contracts/OrderBook.sol:OrderBook",
        "label": "orderOfHash",
        "offset": 0,
        "slot": "4",
        "type": "t_mapping(t_bytes32,t_struct(Order)5136_storage)"
      }
    ],
    "types": {
      "t_address": {
        "encoding": "inplace",
        "label": "address",
        "numberOfBytes": "20"
      },
      "t_array(t_bytes32)dyn_storage": {
        "base": "t_bytes32",
        "encoding": "dynamic_array",
        "label": "bytes32[]",
        "numberOfBytes": "32"
      },
      "t_bytes32": {
        "encoding": "inplace",
        "label": "bytes32",
        "numberOfBytes": "32"
      },
      "t_mapping(t_address,t_array(t_bytes32)dyn_storage)": {
        "encoding": "mapping",
        "key": "t_address",
        "label": "mapping(address => bytes32[])",
        "numberOfBytes": "32",
        "value": "t_array(t_bytes32)dyn_storage"
      },
      "t_mapping(t_bytes32,t_struct(Order)5136_storage)": {
        "encoding": "mapping",
        "key": "t_bytes32",
        "label": "mapping(bytes32 => struct Orders.Order)",
        "numberOfBytes": "32",
        "value": "t_struct(Order)5136_storage"
      },
      "t_struct(Order)5136_storage": {
        "encoding": "inplace",
        "label": "struct Orders.Order",
        "members": [
          {
            "astId": 5117,
            "contract": "contracts/OrderBook.sol:OrderBook",
            "label": "maker",
            "offset": 0,
            "slot": "0",
            "type": "t_address"
          },
          {
            "astId": 5119,
            "contract": "contracts/OrderBook.sol:OrderBook",
            "label": "fromToken",
            "offset": 0,
            "slot": "1",
            "type": "t_address"
          },
          {
            "astId": 5121,
            "contract": "contracts/OrderBook.sol:OrderBook",
            "label": "toToken",
            "offset": 0,
            "slot": "2",
            "type": "t_address"
          },
          {
            "astId": 5123,
            "contract": "contracts/OrderBook.sol:OrderBook",
            "label": "amountIn",
            "offset": 0,
            "slot": "3",
            "type": "t_uint256"
          },
          {
            "astId": 5125,
            "contract": "contracts/OrderBook.sol:OrderBook",
            "label": "amountOutMin",
            "offset": 0,
            "slot": "4",
            "type": "t_uint256"
          },
          {
            "astId": 5127,
            "contract": "contracts/OrderBook.sol:OrderBook",
            "label": "recipient",
            "offset": 0,
            "slot": "5",
            "type": "t_address"
          },
          {
            "astId": 5129,
            "contract": "contracts/OrderBook.sol:OrderBook",
            "label": "deadline",
            "offset": 0,
            "slot": "6",
            "type": "t_uint256"
          },
          {
            "astId": 5131,
            "contract": "contracts/OrderBook.sol:OrderBook",
            "label": "v",
            "offset": 0,
            "slot": "7",
            "type": "t_uint8"
          },
          {
            "astId": 5133,
            "contract": "contracts/OrderBook.sol:OrderBook",
            "label": "r",
            "offset": 0,
            "slot": "8",
            "type": "t_bytes32"
          },
          {
            "astId": 5135,
            "contract": "contracts/OrderBook.sol:OrderBook",
            "label": "s",
            "offset": 0,
            "slot": "9",
            "type": "t_bytes32"
          }
        ],
        "numberOfBytes": "320"
      },
      "t_uint256": {
        "encoding": "inplace",
        "label": "uint256",
        "numberOfBytes": "32"
      },
      "t_uint8": {
        "encoding": "inplace",
        "label": "uint8",
        "numberOfBytes": "1"
      }
    }
  },
  "gasEstimates": {
    "creation": {
      "codeDepositCost": "740800",
      "executionCost": "773",
      "totalCost": "741573"
    },
    "external": {
      "allHashes(uint256,uint256)": "infinite",
      "createOrder(address,address,address,uint256,uint256,address,uint256,uint8,bytes32,bytes32)": "infinite",
      "createOrderCallHash(address,address,address,uint256,uint256,address,uint256)": "878",
      "hashesOfFromToken(address,uint256,uint256)": "infinite",
      "hashesOfMaker(address,uint256,uint256)": "infinite",
      "hashesOfToToken(address,uint256,uint256)": "infinite",
      "numberOfAllHashes()": "1042",
      "numberOfHashesOfFromToken(address)": "1143",
      "numberOfHashesOfMaker(address)": "1165",
      "numberOfHashesOfToToken(address)": "1231",
      "orderOfHash(bytes32)": "8826"
    },
    "internal": {
      "_addHash(bytes32[] storage pointer,bytes32,uint256)": "infinite"
    }
  }
}